{
  "contractName": "GeoCoordinates",
  "abi": [
    {
      "anonymous": false,
      "inputs": [
        {
          "indexed": false,
          "internalType": "int256",
          "name": "latitude",
          "type": "int256"
        },
        {
          "indexed": false,
          "internalType": "int256",
          "name": "longitude",
          "type": "int256"
        }
      ],
      "name": "CoordinateAdded",
      "type": "event"
    },
    {
      "inputs": [
        {
          "internalType": "uint256",
          "name": "",
          "type": "uint256"
        }
      ],
      "name": "coordinates",
      "outputs": [
        {
          "internalType": "int256",
          "name": "latitude",
          "type": "int256"
        },
        {
          "internalType": "int256",
          "name": "longitude",
          "type": "int256"
        }
      ],
      "stateMutability": "view",
      "type": "function",
      "constant": true
    },
    {
      "inputs": [
        {
          "internalType": "int256",
          "name": "_latitude",
          "type": "int256"
        },
        {
          "internalType": "int256",
          "name": "_longitude",
          "type": "int256"
        }
      ],
      "name": "addCoordinate",
      "outputs": [],
      "stateMutability": "nonpayable",
      "type": "function"
    },
    {
      "inputs": [],
      "name": "getCoordinatesCount",
      "outputs": [
        {
          "internalType": "uint256",
          "name": "",
          "type": "uint256"
        }
      ],
      "stateMutability": "view",
      "type": "function",
      "constant": true
    },
    {
      "inputs": [
        {
          "internalType": "uint256",
          "name": "index",
          "type": "uint256"
        }
      ],
      "name": "getCoordinate",
      "outputs": [
        {
          "internalType": "int256",
          "name": "latitude",
          "type": "int256"
        },
        {
          "internalType": "int256",
          "name": "longitude",
          "type": "int256"
        }
      ],
      "stateMutability": "view",
      "type": "function",
      "constant": true
    }
  ],
  "bytecode": "0x608060405234801561001057600080fd5b506104a1806100206000396000f3fe608060405234801561001057600080fd5b5060043610610069576000357c010000000000000000000000000000000000000000000000000000000090048063523372421461006e578063815235f01461009f578063a10143a6146100bb578063f22ed34d146100ec575b600080fd5b610088600480360381019061008391906102ba565b61010a565b604051610096929190610300565b60405180910390f35b6100b960048036038101906100b49190610355565b6101ac565b005b6100d560048036038101906100d091906102ba565b61023f565b6040516100e3929190610300565b60405180910390f35b6100f4610273565b60405161010191906103a4565b60405180910390f35b6000806000805490508310610154576040517f08c379a000000000000000000000000000000000000000000000000000000000815260040161014b9061041c565b60405180910390fd5b60008084815481106101695761016861043c565b5b9060005260206000209060020201604051806040016040529081600082015481526020016001820154815250509050806000015181602001519250925050915091565b60006040518060400160405280848152602001838152509080600181540180825580915050600190039060005260206000209060020201600090919091909150600082015181600001556020820151816001015550507fd4a17fcd878e15f76788582286637dbe303af4cd4bd805f6aea1d5aa1e1f05988282604051610233929190610300565b60405180910390a15050565b6000818154811061024f57600080fd5b90600052602060002090600202016000915090508060000154908060010154905082565b60008080549050905090565b600080fd5b6000819050919050565b61029781610284565b81146102a257600080fd5b50565b6000813590506102b48161028e565b92915050565b6000602082840312156102d0576102cf61027f565b5b60006102de848285016102a5565b91505092915050565b6000819050919050565b6102fa816102e7565b82525050565b600060408201905061031560008301856102f1565b61032260208301846102f1565b9392505050565b610332816102e7565b811461033d57600080fd5b50565b60008135905061034f81610329565b92915050565b6000806040838503121561036c5761036b61027f565b5b600061037a85828601610340565b925050602061038b85828601610340565b9150509250929050565b61039e81610284565b82525050565b60006020820190506103b96000830184610395565b92915050565b600082825260208201905092915050565b7f496e76616c696420696e64657800000000000000000000000000000000000000600082015250565b6000610406600d836103bf565b9150610411826103d0565b602082019050919050565b60006020820190508181036000830152610435816103f9565b9050919050565b7f4e487b7100000000000000000000000000000000000000000000000000000000600052603260045260246000fdfea26469706673582212206780cdb497fe00648e066ecfed6f4a1561aebf758886869ed98a26af583342bd64736f6c634300080b0033",
  "immutableReferences": {},
  "source": "// SPDX-License-Identifier: MIT\npragma solidity ^0.8.0;\n\ncontract GeoCoordinates {\n    // Structure pour les coordonnes gographiques\n    struct Coordinate {\n        int256 latitude;\n        int256 longitude;\n    }\n\n    // Tableau pour stocker les coordonnes\n    Coordinate[] public coordinates;\n\n    // vnement dclench lorsqu'une nouvelle coordonne est ajoute\n    event CoordinateAdded(int256 latitude, int256 longitude);\n\n    // Fonction pour ajouter une nouvelle coordonne au tableau\n    function addCoordinate(int256 _latitude, int256 _longitude) public {\n        coordinates.push(Coordinate(_latitude, _longitude));\n        emit CoordinateAdded(_latitude, _longitude);\n    }\n\n    // Fonction pour obtenir le nombre total de coordonnes stockes\n    function getCoordinatesCount() public view returns (uint256) {\n        return coordinates.length;\n    }\n\n    // Fonction pour obtenir une coordonne par son index dans le tableau\n    function getCoordinate(uint256 index) public view returns (int256 latitude, int256 longitude) {\n        require(index < coordinates.length, \"Invalid index\");\n        Coordinate memory coord = coordinates[index];\n        return (coord.latitude, coord.longitude);\n    }\n}",
  "sourcePath": "/Users/charles/Src/dApp/contracts/GeoCoordinates.sol",
  "compiler": {
    "name": "solc",
    "version": "0.8.11+commit.d7f03943.Emscripten.clang"
  },
  "schemaVersion": "3.4.16",
  "updatedAt": "2024-05-17T19:58:52.764Z",
  "networkType": "ethereum",
  "devdoc": {
    "kind": "dev",
    "methods": {},
    "version": 1
  },
  "userdoc": {
    "kind": "user",
    "methods": {},
    "version": 1
  }
}